{
  "abi": [
    {
      "inputs": [
        {
          "internalType": "address",
          "name": "_enscat",
          "type": "address"
        }
      ],
      "stateMutability": "nonpayable",
      "type": "constructor"
    },
    {
      "inputs": [
        {
          "internalType": "bytes32",
          "name": "expected",
          "type": "bytes32"
        },
        {
          "internalType": "bytes32",
          "name": "provided",
          "type": "bytes32"
        }
      ],
      "name": "InvalidNamehash",
      "type": "error"
    },
    {
      "inputs": [
        {
          "internalType": "string",
          "name": "str",
          "type": "string"
        }
      ],
      "name": "InvalidParentDomain",
      "type": "error"
    },
    {
      "inputs": [
        {
          "internalType": "string",
          "name": "id",
          "type": "string"
        },
        {
          "internalType": "uint256",
          "name": "index",
          "type": "uint256"
        }
      ],
      "name": "InvalidTokenID",
      "type": "error"
    },
    {
      "inputs": [
        {
          "internalType": "address",
          "name": "sender",
          "type": "address"
        },
        {
          "internalType": "string[]",
          "name": "urls",
          "type": "string[]"
        },
        {
          "internalType": "bytes",
          "name": "callData",
          "type": "bytes"
        },
        {
          "internalType": "bytes4",
          "name": "callbackFunction",
          "type": "bytes4"
        },
        {
          "internalType": "bytes",
          "name": "extraData",
          "type": "bytes"
        }
      ],
      "name": "OffchainLookup",
      "type": "error"
    },
    {
      "inputs": [
        {
          "internalType": "bytes32",
          "name": "expected",
          "type": "bytes32"
        },
        {
          "internalType": "bytes32",
          "name": "check",
          "type": "bytes32"
        },
        {
          "internalType": "bytes",
          "name": "data",
          "type": "bytes"
        },
        {
          "internalType": "uint256",
          "name": "blknum",
          "type": "uint256"
        },
        {
          "internalType": "bytes",
          "name": "result",
          "type": "bytes"
        }
      ],
      "name": "RequestError",
      "type": "error"
    },
    {
      "inputs": [
        {
          "internalType": "bytes32",
          "name": "node",
          "type": "bytes32"
        },
        {
          "internalType": "bytes",
          "name": "data",
          "type": "bytes"
        }
      ],
      "name": "ResolverNotSet",
      "type": "error"
    },
    {
      "inputs": [
        {
          "internalType": "address",
          "name": "resolver",
          "type": "address"
        },
        {
          "internalType": "bytes",
          "name": "_call",
          "type": "bytes"
        },
        {
          "internalType": "bytes",
          "name": "_error",
          "type": "bytes"
        }
      ],
      "name": "StaticCallFailed",
      "type": "error"
    },
    {
      "stateMutability": "payable",
      "type": "fallback"
    },
    {
      "inputs": [],
      "name": "ENS",
      "outputs": [
        {
          "internalType": "contract iENS",
          "name": "",
          "type": "address"
        }
      ],
      "stateMutability": "view",
      "type": "function"
    },
    {
      "inputs": [],
      "name": "ENSCAT",
      "outputs": [
        {
          "internalType": "contract iENSCAT",
          "name": "",
          "type": "address"
        }
      ],
      "stateMutability": "view",
      "type": "function"
    },
    {
      "inputs": [],
      "name": "baseHash",
      "outputs": [
        {
          "internalType": "bytes32",
          "name": "",
          "type": "bytes32"
        }
      ],
      "stateMutability": "view",
      "type": "function"
    },
    {
      "inputs": [
        {
          "internalType": "bytes",
          "name": "name",
          "type": "bytes"
        }
      ],
      "name": "dnsDecode",
      "outputs": [
        {
          "internalType": "bytes32",
          "name": "",
          "type": "bytes32"
        },
        {
          "internalType": "bool",
          "name": "",
          "type": "bool"
        }
      ],
      "stateMutability": "view",
      "type": "function"
    },
    {
      "inputs": [
        {
          "internalType": "bytes32",
          "name": "_callhash",
          "type": "bytes32"
        },
        {
          "internalType": "bytes",
          "name": "data",
          "type": "bytes"
        }
      ],
      "name": "getResult",
      "outputs": [
        {
          "internalType": "bytes",
          "name": "",
          "type": "bytes"
        }
      ],
      "stateMutability": "view",
      "type": "function"
    },
    {
      "inputs": [],
      "name": "primaryDomainHash",
      "outputs": [
        {
          "internalType": "bytes32",
          "name": "",
          "type": "bytes32"
        }
      ],
      "stateMutability": "view",
      "type": "function"
    },
    {
      "inputs": [
        {
          "internalType": "bytes",
          "name": "name",
          "type": "bytes"
        },
        {
          "internalType": "bytes",
          "name": "data",
          "type": "bytes"
        }
      ],
      "name": "resolve",
      "outputs": [
        {
          "internalType": "bytes",
          "name": "",
          "type": "bytes"
        }
      ],
      "stateMutability": "view",
      "type": "function"
    },
    {
      "inputs": [
        {
          "internalType": "bytes",
          "name": "response",
          "type": "bytes"
        },
        {
          "internalType": "bytes",
          "name": "extraData",
          "type": "bytes"
        }
      ],
      "name": "resolveWithoutProof",
      "outputs": [
        {
          "internalType": "bytes",
          "name": "",
          "type": "bytes"
        }
      ],
      "stateMutability": "view",
      "type": "function"
    },
    {
      "inputs": [],
      "name": "secondaryDomainHash",
      "outputs": [
        {
          "internalType": "bytes32",
          "name": "",
          "type": "bytes32"
        }
      ],
      "stateMutability": "view",
      "type": "function"
    },
    {
      "inputs": [
        {
          "internalType": "bytes4",
          "name": "sig",
          "type": "bytes4"
        }
      ],
      "name": "supportsInterface",
      "outputs": [
        {
          "internalType": "bool",
          "name": "",
          "type": "bool"
        }
      ],
      "stateMutability": "pure",
      "type": "function"
    },
    {
      "inputs": [],
      "name": "withdrawEther",
      "outputs": [],
      "stateMutability": "nonpayable",
      "type": "function"
    },
    {
      "inputs": [
        {
          "internalType": "address",
          "name": "_token",
          "type": "address"
        },
        {
          "internalType": "uint256",
          "name": "_bal",
          "type": "uint256"
        }
      ],
      "name": "withdrawToken",
      "outputs": [],
      "stateMutability": "nonpayable",
      "type": "function"
    },
    {
      "stateMutability": "payable",
      "type": "receive"
    }
  ],
  "bytecode": {
    "object": "0x60e060405234801561001057600080fd5b5060405161193838038061193883398101604081905261002f91610190565b60408051600060208201527f4f5b812789fc606be1b3b16908db13fc7a9adf7ca72641f84d75b47069d3d7f09181019190915260600160408051808303601f19018152828252805160209182012060a081905283830183526008845266626060d7e13f3360c71b938201939093528151908101929092527f1118935cc27e89d92c60d379bef0060b53f87174c9562623615b2cd93f19b9609082015260600160408051808303601f19018152828252805160209182012060805260a051838301835260078452660c4c0c1ad8d85d60ca1b938201939093528151908101929092527fecfde3a710798d60a2f697018bcc21642382921d227d77bbcb88224c3bb57d189082015260600160408051601f19818403018152919052805160209091012060c052600080546001600160a01b039092166001600160a01b0319928316179055600180549091166e0c2e074ec69a0dfb2997ba6c7d2e1e1790556101c0565b6000602082840312156101a257600080fd5b81516001600160a01b03811681146101b957600080fd5b9392505050565b60805160a05160c05161172d61020b600039600081816102ef01528181610b8b0152610c190152600081816102170152610bcb0152600081816101d50152610b4e015261172d6000f3fe6080604052600436106100cb5760003560e01c80637362377b116100745780639061b9231161004e5780639061b9231461029d5780639e281a98146102bd578063c78946a3146102dd57600080fd5b80637362377b1461023957806375fcc911146102505780638e47aeb21461027d57600080fd5b806323438b73116100a557806323438b731461019657806342f0bfd1146101c3578063441af61a1461020557600080fd5b806301ffc9a7146100da57806303e4efe51461010f5780631d2e2cc41461014457600080fd5b366100d557600080fd5b600080fd5b3480156100e657600080fd5b506100fa6100f5366004610efa565b610311565b60405190151581526020015b60405180910390f35b34801561011b57600080fd5b5061012f61012a366004610f85565b6103aa565b60408051928352901515602083015201610106565b34801561015057600080fd5b506001546101719073ffffffffffffffffffffffffffffffffffffffff1681565b60405173ffffffffffffffffffffffffffffffffffffffff9091168152602001610106565b3480156101a257600080fd5b506000546101719073ffffffffffffffffffffffffffffffffffffffff1681565b3480156101cf57600080fd5b506101f77f000000000000000000000000000000000000000000000000000000000000000081565b604051908152602001610106565b34801561021157600080fd5b506101f77f000000000000000000000000000000000000000000000000000000000000000081565b34801561024557600080fd5b5061024e610744565b005b34801561025c57600080fd5b5061027061026b366004610fc7565b610839565b6040516101069190611063565b34801561028957600080fd5b50610270610298366004611076565b610a5b565b3480156102a957600080fd5b506102706102b8366004611076565b610b47565b3480156102c957600080fd5b5061024e6102d8366004611104565b610da4565b3480156102e957600080fd5b506101f77f000000000000000000000000000000000000000000000000000000000000000081565b60007fffffffff0000000000000000000000000000000000000000000000000000000082167f9061b9230000000000000000000000000000000000000000000000000000000014806103a457507fffffffff0000000000000000000000000000000000000000000000000000000082167f01ffc9a700000000000000000000000000000000000000000000000000000000145b92915050565b60408051600480825260a082019092526000918291829182918291816020015b60608152602001906001900390816103ca57905050905060005b8787858181106103f6576103f661115f565b909101357fff00000000000000000000000000000000000000000000000000000000000000161590506104b3576001840193610435908590898b61118e565b61043e916111b8565b60f81c84810194909150610455908590898b61118e565b8080601f016020809104026020016040519081016040528093929190818152602001838380828437600092019190915250508451859250869150811061049d5761049d61115f565b60200260200101819052508260010192506103e4565b60009350600092505b816000815181106104cf576104cf61115f565b60200260200101515183101561062057603060f81b826000815181106104f7576104f761115f565b602002602001015184815181106105105761051061115f565b01602001517fff000000000000000000000000000000000000000000000000000000000000001610806105985750603960f81b826000815181106105565761055661115f565b6020026020010151848151811061056f5761056f61115f565b01602001517fff0000000000000000000000000000000000000000000000000000000000000016115b156105ce57816000815181106105b0576105b061115f565b6020026020010151805190602001206000955095505050505061073d565b6030826000815181106105e3576105e361115f565b602002602001015184815181106105fc576105fc61115f565b602001015160f81c60f81b60f81c0360ff1684600a020193508260010192506104bc565b60008054906101000a900473ffffffffffffffffffffffffffffffffffffffff1673ffffffffffffffffffffffffffffffffffffffff166318160ddd6040518163ffffffff1660e01b8152600401602060405180830381865afa15801561068b573d6000803e3d6000fd5b505050506040513d601f19601f820116820180604052508101906106af9190611200565b841061071057816000815181106106c8576106c861115f565b60200260200101516127106040517fb0aeaab2000000000000000000000000000000000000000000000000000000008152600401610707929190611219565b60405180910390fd5b816000815181106107235761072361115f565b602002602001015180519060200120600195509550505050505b9250929050565b60008054906101000a900473ffffffffffffffffffffffffffffffffffffffff1673ffffffffffffffffffffffffffffffffffffffff166301e51ae86040518163ffffffff1660e01b8152600401602060405180830381865afa1580156107af573d6000803e3d6000fd5b505050506040513d601f19601f820116820180604052508101906107d3919061123b565b73ffffffffffffffffffffffffffffffffffffffff163373ffffffffffffffffffffffffffffffffffffffff161461080a57600080fd5b60405133904780156108fc02916000818181858888f19350505050158015610836573d6000803e3d6000fd5b50565b606060006024831161087a5761085360046000858761118e565b8660405160200161086693929190611258565b6040516020818303038152906040526108ba565b61088860046000858761118e565b86610896866024818a61118e565b6040516020016108aa95949392919061126a565b6040516020818303038152906040525b6001546040517f0178b8bf0000000000000000000000000000000000000000000000000000000081526004810188905291925060009173ffffffffffffffffffffffffffffffffffffffff90911690630178b8bf90602401602060405180830381865afa15801561092f573d6000803e3d6000fd5b505050506040513d601f19601f82011682018060405250810190610953919061123b565b905073ffffffffffffffffffffffffffffffffffffffff81166109a65785826040517fb0c6789f000000000000000000000000000000000000000000000000000000008152600401610707929190611292565b6000808273ffffffffffffffffffffffffffffffffffffffff16846040516109ce91906112b3565b600060405180830381855afa9150503d8060008114610a09576040519150601f19603f3d011682016040523d82523d6000602084013e610a0e565b606091505b509150915081610a50578284826040517f77c60813000000000000000000000000000000000000000000000000000000008152600401610707939291906112cf565b979650505050505050565b606060008080610a6d8587018761131a565b9250925092506000333083858c8c604051602001610a90969594939291906113de565b6040516020818303038152906040528051906020012090508381141580610ac05750610abd836005611450565b43115b15610b0357838183858c8c6040517f1e154c32000000000000000000000000000000000000000000000000000000008152600401610707969594939291906114b5565b88888080601f016020809104026020016040519081016040528093929190818152602001838380828437600092019190915250929c9b505050505050505050505050565b60606000807f0000000000000000000000000000000000000000000000000000000000000000610b7b60246004878961118e565b610b84916114fa565b03610bb1577f00000000000000000000000000000000000000000000000000000000000000009150610c60565b610bbb87876103aa565b909250905080610c1357604080517f0000000000000000000000000000000000000000000000000000000000000000602082015290810183905260600160405160208183030381529060405280519060200120610c5d565b604080517f00000000000000000000000000000000000000000000000000000000000000006020820152908101839052606001604051602081830303815290604052805190602001205b91505b6000610c6d838787610839565b6040805160028082526060820190925291925060009190816020015b6060815260200190600190039081610c895790505090506040518060600160405280602181526020016116d76021913981600081518110610ccc57610ccc61115f565b60200260200101819052506040518060600160405280602781526020016116b06027913981600181518110610d0357610d0361115f565b6020026020010181905250308183638e47aeb260e01b33308c8c438a604051602001610d3496959493929190611536565b60405160208183030381529060405280519060200120438c8c604051602001610d6094939291906115a0565b60408051601f19818403018152908290527f556f183000000000000000000000000000000000000000000000000000000000825261070795949392916004016115c0565b60008054906101000a900473ffffffffffffffffffffffffffffffffffffffff1673ffffffffffffffffffffffffffffffffffffffff166301e51ae86040518163ffffffff1660e01b8152600401602060405180830381865afa158015610e0f573d6000803e3d6000fd5b505050506040513d601f19601f82011682018060405250810190610e33919061123b565b73ffffffffffffffffffffffffffffffffffffffff163373ffffffffffffffffffffffffffffffffffffffff1614610e6a57600080fd5b6040517f23b872dd0000000000000000000000000000000000000000000000000000000081523060048201523360248201526044810182905273ffffffffffffffffffffffffffffffffffffffff8316906323b872dd90606401600060405180830381600087803b158015610ede57600080fd5b505af1158015610ef2573d6000803e3d6000fd5b505050505050565b600060208284031215610f0c57600080fd5b81357fffffffff0000000000000000000000000000000000000000000000000000000081168114610f3c57600080fd5b9392505050565b60008083601f840112610f5557600080fd5b50813567ffffffffffffffff811115610f6d57600080fd5b60208301915083602082850101111561073d57600080fd5b60008060208385031215610f9857600080fd5b823567ffffffffffffffff811115610faf57600080fd5b610fbb85828601610f43565b90969095509350505050565b600080600060408486031215610fdc57600080fd5b83359250602084013567ffffffffffffffff811115610ffa57600080fd5b61100686828701610f43565b9497909650939450505050565b60005b8381101561102e578181015183820152602001611016565b50506000910152565b6000815180845261104f816020860160208601611013565b601f01601f19169290920160200192915050565b602081526000610f3c6020830184611037565b6000806000806040858703121561108c57600080fd5b843567ffffffffffffffff808211156110a457600080fd5b6110b088838901610f43565b909650945060208701359150808211156110c957600080fd5b506110d687828801610f43565b95989497509550505050565b73ffffffffffffffffffffffffffffffffffffffff8116811461083657600080fd5b6000806040838503121561111757600080fd5b8235611122816110e2565b946020939093013593505050565b7f4e487b7100000000000000000000000000000000000000000000000000000000600052604160045260246000fd5b7f4e487b7100000000000000000000000000000000000000000000000000000000600052603260045260246000fd5b6000808585111561119e57600080fd5b838611156111ab57600080fd5b5050820193919092039150565b7fff0000000000000000000000000000000000000000000000000000000000000081358181169160018510156111f85780818660010360031b1b83161692505b505092915050565b60006020828403121561121257600080fd5b5051919050565b60408152600061122c6040830185611037565b90508260208301529392505050565b60006020828403121561124d57600080fd5b8151610f3c816110e2565b82848237909101908152602001919050565b8486823760008582018581528385602083013760009301602001928352509095945050505050565b8281526040602082015260006112ab6040830184611037565b949350505050565b600082516112c5818460208701611013565b9190910192915050565b73ffffffffffffffffffffffffffffffffffffffff841681526060602082015260006112fe6060830185611037565b82810360408401526113108185611037565b9695505050505050565b60008060006060848603121561132f57600080fd5b8335925060208401359150604084013567ffffffffffffffff8082111561135557600080fd5b818601915086601f83011261136957600080fd5b81358181111561137b5761137b611130565b604051601f8201601f19908116603f011681019083821181831017156113a3576113a3611130565b816040528281528960208487010111156113bc57600080fd5b8260208601602083013760006020848301015280955050505050509250925092565b60007fffffffffffffffffffffffffffffffffffffffff000000000000000000000000808960601b168352808860601b166014840152508551611428816028850160208a01611013565b8083019050856028820152838560488301376000930160480192835250909695505050505050565b808201808211156103a4577f4e487b7100000000000000000000000000000000000000000000000000000000600052601160045260246000fd5b818352818160208501375060006020828401015260006020601f19601f840116840101905092915050565b86815285602082015260a0604082015260006114d460a0830187611037565b85606084015282810360808401526114ed81858761148a565b9998505050505050505050565b803560208310156103a4577fffffffffffffffffffffffffffffffffffffffffffffffffffffffffffffffff602084900360031b1b1692915050565b60007fffffffffffffffffffffffffffffffffffffffff000000000000000000000000808960601b168352808860601b16601484015250848660288401378482018460288201528351611590816048840160208801611013565b0160480198975050505050505050565b84815283602082015260606040820152600061131060608301848661148a565b600060a0820173ffffffffffffffffffffffffffffffffffffffff88168352602060a08185015281885180845260c08601915060c08160051b8701019350828a0160005b82811015611650577fffffffffffffffffffffffffffffffffffffffffffffffffffffffffffffff4088870301845261163e868351611037565b95509284019290840190600101611604565b505050505082810360408401526116678187611037565b7fffffffff0000000000000000000000000000000000000000000000000000000086166060850152905082810360808401526116a38185611037565b9897505050505050505056fe646174613a6170706c69636174696f6e2f6a736f6e2c7b2264617461223a227b646174617d227d646174613a746578742f706c61696e2c7b2264617461223a227b646174617d227da264697066735822122096db6430888237f1d7189ea9392f8f6ae5a83694fe9b4df3346677b2e35994d764736f6c63430008100033",
    "linkReferences": {}
  },
  "methodIdentifiers": {
    "ENS()": "1d2e2cc4",
    "ENSCAT()": "23438b73",
    "baseHash()": "441af61a",
    "dnsDecode(bytes)": "03e4efe5",
    "getResult(bytes32,bytes)": "75fcc911",
    "primaryDomainHash()": "c78946a3",
    "resolve(bytes,bytes)": "9061b923",
    "resolveWithoutProof(bytes,bytes)": "8e47aeb2",
    "secondaryDomainHash()": "42f0bfd1",
    "supportsInterface(bytes4)": "01ffc9a7",
    "withdrawEther()": "7362377b",
    "withdrawToken(address,uint256)": "9e281a98"
  },
  "id": 13
}